:020000040800F2
:1000000000500020C92B00083D0400083F040008F0
:1000100041040008430400084504000800000000F3
:10002000000000000000000000000000470400087D
:1000300049040008000000004B0400084D040008BB
:10004000112C0008112C0008112C0008112C00089C
:10005000112C0008112C0008112C0008112C00088C
:10006000112C0008112C0008112C0008112C00087C
:10007000112C0008112C0008112C0008112C00086C
:10008000112C0008112C0008112C0008112C00085C
:10009000112C0008112C0008112C0008112C00084C
:1000A000112C0008112C0008112C0008112C00083C
:1000B000112C0008112C0008112C00085504000810
:1000C00065040008112C0008112C0008112C0008F0
:1000D000112C000875040008112C0008112C0008D0
:1000E000112C0008112C0008112C00080000000041
:1000F0000000000000000000000000000000000000
:0C01000000000000000000005FF808F1A3
:10010C0010B5054C237833B9044B13B10448AFF345
:10011C0000800123237010BD0C00002000000000A3
:10012C006C2C000808B5034B1BB103490348AFF313
:10013C00008008BD00000000100000206C2C00089E
:10014C0072B6FEE700B591B02822002106A802F095
:10015C005AFD002301930293039304930593012208
:10016C0006924FF4803307930A9202220D920E935B
:10017C004FF4E0130F9306A801F062FD80B90F2332
:10018C00019302210291002303934FF480620492A5
:10019C00059301A801F086FF20B911B05DF804FBAE
:1001AC00FFF7CEFFFFF7CCFF00B583B001F0FAFCF0
:1001BC00FFF7C8FF00F01EF800F06CF800F0DAF85A
:1001CC000A4B1B68ADF804301B0C8DF806304FF44D
:1001DC000051074802F056F9032101A800F0BAF8C3
:1001EC004FF47A7001F002FDF1E700BF842C000897
:1001FC000010014030B589B0002404940594069495
:10020C000794214B9A6942F010029A619A6902F0A4
:10021C0010020092009A9A6942F020029A619A693F
:10022C0002F020020192019A9A6942F004029A614A
:10023C009A6902F004020292029A9A6942F0080248
:10024C009A619B6903F008030393039B0F4D2246AD
:10025C004FF40051284602F00FF94FF40053049369
:10026C000123059306940223079304A9284601F061
:10027C00F5FF4FF4004304930594069404A9044835
:10028C0001F0ECFF09B030BD00100240001001403D
:10029C000008014008B50B480B4B03600B4B436047
:1002AC0000238360C3604FF4804202614361836129
:1002BC00C361036200F07CFC00B908BDFFF740FF8E
:1002CC00FBE700BF2800002000540040A08601007E
:1002DC0010B586B000230293039304930593026830
:1002EC00194B9A4201D006B010BD184CA36943F0CB
:1002FC000803A361A36903F008030093009BC023C8
:10030C000293122303930323059302A9104801F0CF
:10031C00A5FFE36943F40013E361E36903F40013FD
:10032C000193019B002211461F2002F06DF91F2042
:10033C0002F07AF900221146202002F065F9202003
:10034C0002F072F9CFE700BF0054004000100240E9
:10035C00000C014000B583B002460B464FF0FF3154
:10036C0000910021024800F001FD03B05DF804FB90
:10037C002800002008B50A480A4B03604FF4E1330B
:10038C00436000238360C36003610C22426183617C
:10039C00C36102F013FA00B908BDFFF7D1FEFBE709
:1003AC007C0000200038014030B587B00023029358
:1003BC0003930493059302681B4B9A4201D007B038
:1003CC0030BD03F558439A6942F480429A619A69A8
:1003DC0002F480420092009A9A6942F004029A61F7
:1003EC009B6903F004030193019B4FF40073029388
:1003FC0002230393032305930C4D02A9284601F015
:10040C002DFF4FF48063029300240394049402A9FB
:10041C00284601F023FF22462146252002F0F4F85D
:10042C00252002F001F9CAE700380140000801401C
:10043C00FEE7FEE7FEE7FEE7FEE770477047704712
:10044C0008B501F0C1FB08BD08B5024801F050FA2F
:10045C0008BD00BF2800002008B5024801F018FBB9
:10046C0008BD00BF2800002008B5024802F062FA5F
:10047C0008BD00BF7C00002082B00E4B9A6942F090
:10048C0001029A619A6902F001020092009ADA69FB
:10049C0042F08052DA61DB6903F080530193019BD7
:1004AC00054A536823F0E06343F00073536002B0D5
:1004BC00704700BF001002400000014003685A69F9
:1004CC0012F0800F01D000221A61704790F83E3074
:1004DC00DBB2402B10D00369B3F5804F1BD0036DFA
:1004EC00002B39D1436CC3F3C813026803F0060325
:1004FC0043F0F00313617047036D2BB9436C026832
:10050C0003F0FE0313617047436C026843F0010370
:10051C00DBB21361704790F83D30DBB2212B0FD06A
:10052C00436C026843F00103DBB21361436B6BB1A4
:10053C009B6A5BB10268536843F400635360704775
:10054C00436C026803F0FE031361EFE7836B33B176
:10055C009B6A002BEED102E0036D012B00D070479B
:10056C00436CC3F3C813026803F0060343F0F103B2
:10057C001361F4E7436C0268DBB21361436B3BB16C
:10058C009B6A2BB10268536843F400635360704755
:10059C00836B002BFBD09B6A002BF3D1F7E7000099
:1005AC0010B48DB090F83E30DAB2C16A046B90F89A
:1005BC003D30DBB2222B0AD000230B9303685A691F
:1005CC000B929B690B930B9B0DB010BC7047036D8A
:1005DC000BB9402A17D0036D1BB90369B3F5404F13
:1005EC0019D0438D9BB2002B25D1039303685A6914
:1005FC0003929A690392039A1A6842F400721A6081
:10060C0000230365E0E7019303685A6901929B6933
:10061C000193019BD8E70023029303685A69029265
:10062C009A690292029A1A6842F480721A60036DF7
:10063C0001330365C8E7438D9BB2012B1CD0438D5E
:10064C009BB2022B72D00268136843F48063136070
:10065C0003685A6812F4006F00F0B480202900F28D
:10066C00BA80082980F0A780012940F0AB805A6835
:10067C0042F480525A60A5E011F5803F11D0082950
:10068C0034D0202932D0122C2ED0042940D002296B
:10069C003ED010293CD00268136823F480631360A9
:1006AC003BE00268136823F48063136003685A68A4
:1006BC0012F4006F0CD01A6822F480621A600023C6
:1006CC00049303685A6904929B690493049B97E70B
:1006DC00002205925A6905929A690592059A1A6840
:1006EC0042F400721A608BE70129D0D002681368BB
:1006FC0023F4806313600023079303685A690792FD
:10070C009A690792079A1A6842F400721A6077E79E
:10071C000268136843F48063136000230693036834
:10072C005A6906929B690693069B69E7102904D8BF
:10073C002B4BCB4013F0010F22D10268136843F40A
:10074C00006313600023089303685A6908929A693E
:10075C000892089A1A6822F480621A6003685A6830
:10076C0012F4006F3FF44CAF20291FD8082915D282
:10077C0001297FF445AF5A6842F480525A603FE732
:10078C000268136843F480631360002309930368C1
:10079C005A6909929B690993099BDFE70839114A49
:1007AC00CA4012F0010F3FF42BAFE4E711F5803F84
:1007BC007FF426AFDFE708390A4ACA4012F0010F6E
:1007CC007FF455AF00230A9303685A690A929B6918
:1007DC000A930A9B14E711F5803FF3D147E700BF5A
:1007EC001400010001010001438D9BB25BB1426A10
:1007FC00036812781A61436A01334362438D9BB2DA
:10080C00013B9BB243857047438D9BB25BB1036840
:10081C001A69436A1A70436A01334362438D9BB26F
:10082C00013B9BB24385704782B0002301930E4B72
:10083C001B68DB080D4AA2FB03231B0A03EB830393
:10084C000193019B013B0193019B33B103681B682E
:10085C0013F4007FF5D1002004E0036C43F0200377
:10086C000364012002B070470800002089B5F81419
:10087C0003685A6912F4806F01D1002070476FF43D
:10088C0080625A6100230363202280F83D2080F8A7
:10089C003E30026C42F00402026480F83C300120CD
:1008AC007047C36AB3F52A0F04D0C36AB3F12A4F59
:1008BC0003D070470123C36270470823C362F8E773
:1008CC002DE9F04106460C46174698463BE001F0F0
:1008DC0087F9069BC01A404502D8B8F1000F32D1F7
:1008EC00012D18D033689B6924EA03039BB2B3FA39
:1008FC0083F35B099F4226D100233363202286F8C1
:10090C003D2086F83E30326C42F02002326486F88C
:10091C003C30012027E033685B6924EA03039BB277
:10092C00B3FA83F35B09E5E733685B6924EA030CEC
:10093C001FFA8CFCBCFA8CFC4FEA5C1C674511D18D
:10094C00B8F1FF3FC3D1C4F30745012DECD0336898
:10095C009B6924EA030C1FFA8CFCBCFA8CFC4FEA52
:10096C005C1CEBE70020BDE8F0812DE9F84305465F
:10097C000E469046994653E01A6842F400721A608B
:10098C002B686FF480625A6100232B63202285F858
:10099C003D2085F83E302A6C42F004022A6485F82A
:1009AC003C3001204AE001F01BF9A0EB0900404566
:1009BC0002D8B8F1000F33D1012F17D02B689B69E7
:1009CC0026EA03039BB2003B18BF012343B3002369
:1009DC002B63202285F83D2085F83E302A6C42F0AE
:1009EC0020022A6485F83C30012027E02B685B69E3
:1009FC0026EA03039BB2003B18BF0123E6E72B68F2
:100A0C009C6926EA0404A4B2003C18BF0124A4B1DA
:100A1C002B685A6912F4806FAED1B8F1FF3FC2D186
:100A2C00C6F30747012FEAD12B685C6926EA040458
:100A3C00A4B2003C18BF0124E9E70020BDE8F8830C
:100A4C00F0B583B004460D4616461F46C36A082B04
:100A5C000DD0012B0BD013F5803F08D0036B122B5C
:100A6C000AD10268136843F48073136004E02268AF
:100A7C00136843F4807313600097334600224FF0E1
:100A8C0001112046FFF71CFF80B92369B3F5804F95
:100A9C0016D1236805F0FE051D613B46324613490D
:100AAC002046FFF762FFF8B903B0F0BD23681B685E
:100ABC0013F4807F02D04FF4007323640320F3E718
:100ACC00EB11226803F0060343F0F00313613B467D
:100ADC00324607492046FFF748FF18B92368EDB2A4
:100AEC001D61DAE70120DFE70120DDE702000100EC
:100AFC000800010070B504460D46164623685B6974
:100B0C0013F0800F21D12046FFF7B2FEF8B9B5F1F2
:100B1C00FF3FF3D001F064F8801BA84201D8002DF0
:100B2C00ECD123685B6913F0800FE7D100232363BA
:100B3C00202284F83D2084F83E30226C42F02002C2
:100B4C00226484F83C30012000E0002070BD0120BC
:100B5C00FCE770B504460D46164623685B6913F036
:100B6C00040F21D12046FFF783FEF8B9B5F1FF3F02
:100B7C00F3D001F035F8801BA84201D8002DECD140
:100B8C0023685B6913F0040FE7D100232363202251
:100B9C0084F83D2084F83E30226C42F0200222641E
:100BAC0084F83C30012000E0002070BD0120FCE7FF
:100BBC00002800F0CC8070B5044690F83D30002B36
:100BCC0077D0242384F83D302268136823F0010386
:100BDC0013602268136843F400431360226813689F
:100BEC0023F40043136001F019FB62685A4B9A42DC
:100BFC0064D85A4B98428CBF00230123002B40F041
:100C0C00A8805749A1FB00318B0C25686A6822F03B
:100C1C003F0242EA91426A6021680A6A22F03F026E
:100C2C0066684D4DAE424FD8013313430B622168B9
:100C3C00CA6922F44F4222F0FF026568464B9D427E
:100C4C004CD8431E6D00B3FBF5F3013340F6FC703A
:100C5C00034278D0C3F30B031A43CA6121680B68B3
:100C6C0023F0C003E269206A024313430B6021683E
:100C7C008B6823F4034323F0FF032269E0680243EB
:100C8C0013438B602168CB6823F0FF036269A06972
:100C9C0002431343CB602268136843F001031360D3
:100CAC0000202064202384F83D30206384F83E002B
:100CBC0070BD80F83C30FFF70BFB82E7294B984264
:100CCC008CBF0023012399E74FF4967505FB03F3C2
:100CDC00254DA5FB03539B090133A6E7A668BEB9B6
:100CEC00431E05EB450CB3FBFCF30133C3F30B03C1
:100CFC00B3FA83F35B0943BBC6B9431E05EB450549
:100D0C00B3FBF5F30133C3F30B0343F40043A3E745
:100D1C00431E05EB850C0CEB8C0CB3FBFCF3013385
:100D2C00C3F30B03B3FA83F35B09E4E7431E05EB50
:100D3C00850505EB8505B3FBF5F30133C3F30B0315
:100D4C0043F4404388E7042386E7012384E701202A
:100D5C0070470120ACE700BFA08601007F841E0015
:100D6C0083DE1B43FF083D00D34D62102DE9F04399
:100D7C0085B004460F46914698460C9E00F030FF15
:100D8C00054694F83D00C0B2202804D0022738460E
:100D9C0005B0BDE8F0830095192301224F49204688
:100DAC00FFF78EFD002840F0928094F83C30012B28
:100DBC0000F08F80012384F83C3023681A6812F00D
:100DCC00010F03D11A6842F001021A6022681368FD
:100DDC0023F400631360212384F83D30102384F83E
:100DEC003E3000232364C4F82490A4F82A80638D39
:100DFC0023853B4BE3622B46324639462046FFF7B0
:100E0C001FFE0746002866D10023039323685A6906
:100E1C0003929B690393039B11E0236C042B01D079
:100E2C000127B4E72268136843F400731360F7E7F3
:100E3C002A4631462046FFF78CFE00282ED1238D02
:100E4C00002B36D02A4631462046FFF753FE0028A9
:100E5C00E3D1626A236812781A61606A431C636288
:100E6C00618D89B2013989B26185238D013B9BB2B9
:100E7C0023852268516911F0040FD9D0002BD7D0EB
:100E8C0043781361636A01336362638D9BB2013BE8
:100E9C009BB26385238D013B2385C9E7236C042B0F
:100EAC0001D0012773E72268136843F400731360C1
:100EBC00F7E72268136843F400731360202384F867
:100ECC003D30002384F83E3084F83C305FE7022745
:100EDC005DE702275BE7012759E700BF020010001E
:100EEC000000FFFF70477047704708B590F83D3021
:100EFC00DAB2438D9BB283B1416A036809781961F8
:100F0C00436A01334362438D9BB2013B9BB24385E1
:100F1C00438D9BB20BB9292A00D008BD02685368D7
:100F2C0023F48063536021230363282380F83D302E
:100F3C00FFF7DAFFF1E7704708B590F83D30DAB209
:100F4C00438D9BB283B103681969436A1970436A74
:100F5C0001334362438D9BB2013B9BB24385438D6E
:100F6C009BB20BB92A2A00D008BD0268536823F43F
:100F7C008063536022230363282380F83D30FFF7FE
:100F8C00DAFFF1E7704700B583B090F83D3003F01D
:100F9C002803282B0CD0002301930268516901917E
:100FAC0092690192019A80F83C3003B05DF804FB21
:100FBC000268536823F48063536011F0040F0BD064
:100FCC00002311F0800F09D18289002180F83C1098
:100FDC001946FFF7D7FFE8E70123F2E7028BF4E7A6
:100FEC007047000010B5044690F83D30DBB2C26A81
:100FFC00082A01D0202A01D1282B06D0212B1FD062
:10100C0023686FF480625A6110BD1D4BE362226845
:10101C00536823F4E063536023686FF480625A6171
:10102C002268136823F48063136000232363202257
:10103C0084F83D2084F83E302046FFF7D1FFE3E7EB
:10104C000F4BE36221232363202384F83D300023DC
:10105C0084F83E302268536823F4E06353602368BD
:10106C006FF480625A612268136823F48063136002
:10107C002046FFF723FA2046FFF736FFC4E700BFF0
:10108C000000FFFF704708B5C26A90F83D30DBB234
:10109C00212B00D008BD438D9BB263B1426A03681B
:1010AC0012781A61436A01334362438D9BB2013B50
:1010BC009BB24385EEE7082A04D0202A02D012F511
:1010CC00803F19D10268536823F4E06353600268CF
:1010DC00136843F40073136000230363202380F828
:1010EC003D3090F83E30DBB2402B15D0002380F819
:1010FC003E30FFF7F7FECDE70268536823F4E06358
:10110C00536011230363002380F83E30202380F8C2
:10111C003D30FFF7E7FEBDE7002380F83E30FFF7D8
:10112C00B1FFB7E708B590F83D30026D9AB9C36CC2
:10113C00012B08D0836CC3F3072302681361036D82
:10114C000133036508BD836C0268DBB21361036D68
:10115C0002330365F6E7DBB2026D012A23D0026D80
:10116C00022A3ED1222B26D0428D92B20AB1212BDB
:10117C002AD0428D92B2002AE4D1212BE2D102680E
:10118C00536823F4E06353600268136843F40073FC
:10119C00136000230363202280F83D2080F83E304A
:1011AC00FFF770FFCEE7836C0268DBB21361036D4F
:1011BC0001330365C6E70268136843F48073136058
:1011CC00036D01330365BDE7426A036812781A6147
:1011DC00436A01334362438D9BB2013B9BB243850F
:1011EC00B0E7FFF76BF9ADE710B590F83D30DBB227
:1011FC0090F83E20D2B2C46A018D00293BD1212B3C
:10120C0002D0402A42D010BD082C04D0202C02D091
:10121C0014F5803F19D10268536823F4E0635360DE
:10122C000268136843F400731360002303632023E4
:10123C0080F83D3090F83E30DBB2402B15D00023C7
:10124C0080F83E30FFF74EFEDDE70268536823F46A
:10125C00E063536011230363002380F83E302023A6
:10126C0080F83D30FFF73EFECDE7002380F83E309E
:10127C00FFF708FFC7E7212BC3D1438D9BB243B9BE
:10128C000268536823F480635360BCE7222BBAD105
:10129C00F3E790F83E30DBB2402B0CD0426A036887
:1012AC0012781A61436A01334362438D9BB2013B4E
:1012BC009BB24385A7E7FFF735FFA4E7704708B556
:1012CC00C26A438D9BB2042B14D0438D9BB2032B6B
:1012DC0022D0438D9BB2022B39D003681A69436A22
:1012EC001A70436A01334362438D9BB2013B9BB23C
:1012FC00438510E00268536823F4806353600368ED
:10130C001A69436A1A70436A01334362438D9BB274
:10131C00013B9BB2438508BD01684B6823F4806395
:10132C004B60042A06D0022A04D00268136823F406
:10133C008063136003681A69436A1A70436A013345
:10134C004362438D9BB2013B9BB24385E3E7531E43
:10135C000F2B42D8DFE803F0083B413B41414141B0
:10136C00414141414141410801680B6823F48063CC
:10137C000B6003681969436A1970416A4B1C43621C
:10138C00438D9BB2013B9BB2438503681B694B7039
:10139C00436A01334362438D9BB2013B9BB243854D
:1013AC0001684B6823F440734B60202380F83D3078
:1013BC0090F83E30DBB2402B15D0002380F83E3045
:1013CC00082A17D0202A15D01223036314E00168D1
:1013DC000B6843F480630B60CBE701680B6843F444
:1013EC0000730B60C5E7002380F83E300363FFF702
:1013FC0065FF90E700230363FFF775FD8BE77047EC
:10140C0038B590F83D30DBB2222B00D038BD044605
:10141C00C56A438D9BB2032B15D903681A69436ABD
:10142C001A70436A01334362438D9BB2013B9BB2FA
:10143C004385438D9BB2032BE8D10268536823F498
:10144C0080635360E2E7C26A022A01D0012B05D9FE
:10145C002268536823F480635360D7E7FFF7E4F9FD
:10146C00002835D12268136823F480631360226846
:10147C00536823F4E063536023681A69636A1A7033
:10148C00636A01336362638D9BB2013B9BB26385DC
:10149C00202384F83D3094F83E30DBB2402B09D049
:1014AC00002384F83E30082D0CD0202D0AD01223B6
:1014BC00236309E0002384F83E3023632046FFF7C2
:1014CC00FDFEA3E7002323632046FFF70CFD9DE7F9
:1014DC002268536823F4E063536023681A69636AD3
:1014EC001A70636A01336362638D9BB2013B9BB2DA
:1014FC006385202384F83D30002384F83E30204659
:10150C00FFF77DFF82E7704700B583B0002301939E
:10151C00406A90F83D20D2B2324B1B68DB0832494E
:10152C00A1FB03131B0A03EB8303C3EBC30301935C
:10153C00019B43B1019B013B019303681B6813F4AE
:10154C00007FF5D103E0036C43F020030364436B8D
:10155C000BB100219962836B0BB100219962016878
:10156C000B6823F480630B6000234385436B0BB142
:10157C0000215963836B0BB10021596301680B681F
:10158C0023F001030B6090F83D30DBB2602B0ED0E2
:10159C0002F02802282A14D0202380F83D300023A2
:1015AC0080F83E30FFF72BFF03B05DF804FB2023DF
:1015BC0080F83D30002380F83E300364FFF7A3FF32
:1015CC00F2E70268136843F00103136002681368C2
:1015DC0043F48063136000230363282380F83D30B9
:1015EC00E0E700BF0800002089B5F81410B50446E8
:1015FC0090F83D30DBB290F83E20D2B2102A36D0B3
:10160C00402A34D003F02802282A38D022685268A5
:10161C0012F4006F07D1602B05D0202384F83D30E5
:10162C00002384F83E300023236323685A6812F4A5
:10163C00006F48D05A6822F400625A60626B92F8CC
:10164C002130DBB2012B20D0444B5363606B00F094
:10165C0045FF002849D02268136823F0010313606A
:10166C00202384F83D30606B436B98473DE0222B80
:10167C00C8D121680A6822F400620A60C2E700231C
:10168C002363282384F83D30CFE7A36B334A5A6396
:10169C00A06B00F023FF40B323685A6912F0400F8F
:1016AC0005D01A69636A1A70636A0133636222682F
:1016BC00136823F001031360202384F83D30A06BE2
:1016CC00436B984711E094F83D20D2B2602A1FD0AA
:1016DC005A6912F0400F05D01A69636A1A70636A6E
:1016EC00013363622046FFF78AFE236C13F00F0F61
:1016FC0004D02268536823F4E063536094F83D30BF
:10170C00DBB2226C12F0040F01D0282B18D010BDC4
:10171C00202284F83D20002222645A6912F0400FE6
:10172C0005D01A69636A1A70636A013363622268AE
:10173C00136823F0010313602046FFF7E4FED4E79F
:10174C00074BE36200232363202284F83D2084F8B6
:10175C003E302046FFF744FCD9E700BF15150008C2
:10176C000000FFFF30B583B0044690F83D50EDB259
:10177C000268536823F4E063536000230193036809
:10178C005A6901921A6842F001021A60019B0268C0
:10179C00136823F48063136003685A6812F4006FB3
:1017AC0038D0222D21D02A2D1FD0426B12685268BE
:1017BC0092B24285428D92B21AB1026C42F004028E
:1017CC0002645A6822F400625A60606B00F0D2FE28
:1017DC0001281FD0636B444A5A63606B00F07EFE95
:1017EC00C0B1606B436B984714E0A26B12685268EF
:1017FC0092B26285628D92B21AB1226C42F00402EE
:10180C0022645A6822F400625A60A06B00F0B2FEA7
:10181C00012842D1638D9BB233B323685A6912F00D
:10182C00040F0AD01A69636A1A70636A013363621F
:10183C00638D9BB2013B9BB2638523685A6912F09E
:10184C00400F0AD01A69636A1A70636A01336362C3
:10185C00638D9BB2013B9BB26385638D9BB21BB1C5
:10186C00236C43F004032364236C13BB2A2D25D073
:10187C0094F83D30DBB2282B29D0236B222B01D0DE
:10188C00222D19D100232363202284F83D2084F8D3
:10189C003E302046FFF74FFB0EE0A36B124A5A6313
:1018AC00A06B00F01BFE0028B4D0A06B436B9847D4
:1018BC00B0E72046FFF79AFE03B030BD0023236348
:1018CC00282384F83D302046FFF735FBD0E7074B43
:1018DC00E36200232363202284F83D2084F83E3009
:1018EC002046FFF77DFBE7E7151500080000FFFF1A
:1018FC00F8B5044602685568C66A90F83E30DBB20B
:10190C0090F83D10C8B2102B13D0402B11D0236C83
:10191C00002B7AD05369002113F0020F78D015F404
:10192C00007F75D0236C03B191692046FFF72BFB28
:10193C00F8BDD2F818C0516911F0010705D1B6F500
:10194C002A0FF5D0B6F12A4FF2D017B115F4007F5B
:10195C0029D111F0080F02D015F4007F2AD111F013
:10196C00020F02D015F4007F28D11CF0040F31D0E7
:10197C00526812F4006FDBD111F0800F05D015F412
:10198C00806F02D011F0040F1CD011F0040FCFD0D7
:10199C0015F4007FCCD0212818D0402BC8D120467C
:1019AC00FFF7C0FBC4E72046FEF77BFF2046FEF79F
:1019BC008DFDBDE72046FEF7DDFDB9E72046FEF7BD
:1019CC00EFFDB5E72046FFF70FFCB1E72046FFF728
:1019DC005AFBADE7536813F4006FA9D111F0400F17
:1019EC0005D015F4806F02D011F0040F09D011F05E
:1019FC00040F9DD015F4007F9AD02046FFF75FFCB2
:101A0C0096E72046FFF7FCFC92E79169536983E760
:101A1C0013F0100F02D015F4007F18D121281AD022
:101A2C00292818D013F0400F05D015F4806F02D080
:101A3C0013F0040F28D013F0040F3FF479AF15F412
:101A4C00007F3FF475AF2046FEF7DEFE70E72046C0
:101A5C00FFF788FE6CE713F0800F05D015F4806F4C
:101A6C0002D013F0040F0BD013F0040F3FF460AF4F
:101A7C0015F4007F3FF45CAF2046FEF7B5FE57E748
:101A8C002046FFF732FA53E72046FFF755FA4FE7A7
:101A9C00F8B5044603685D695F6890F83E20D2B2E1
:101AAC0015F480760BD017F4807608D06FF4807123
:101ABC00596101680B6843F400430B60012615F46F
:101ACC00007F08D017F4807F05D046F0020623680B
:101ADC006FF40071596115F4806F19D017F4807F81
:101AEC0016D0638D99B294F83D30DBB2206B202A6E
:101AFC001BD023686FF48061596146F00406102AEC
:101B0C0001D0402A04D12268136843F40073136097
:101B1C0015F4006F17D017F4807F14D046F0080628
:101B2C0023686FF400625A610EE00029E1D1212B89
:101B3C0005D0292B03D0282BDBD12128D9D1204645
:101B4C00FFF750FAE4E72EB1236C334323642046AD
:101B5C00FFF74CFDF8BD000010B504460E4B1A788B
:101B6C004FF47A73B3FBF2F30C4A1068B0FBF3F04A
:101B7C0000F068FD68B90F2C01D901200AE00022A1
:101B8C0021464FF0FF3000F03FFD054B1C6000205C
:101B9C0000E0012010BD00BF000000200800002064
:101BAC000400002008B5074A136843F010031360C3
:101BBC00032000F017FD0F20FFF7CEFFFEF75CFCB3
:101BCC00002008BD00200240034A1168034B1B781B
:101BDC000B441360704700BFC400002000000020BD
:101BEC00014B1868704700BFC400002038B504468C
:101BFC00FFF7F6FF0546B4F1FF3F02D0044B1B780C
:101C0C001C44FFF7EDFF401BA042FAD338BD00BFC8
:101C1C000000002082B0084B1B68084AA2FB03237B
:101C2C005B0A00FB03F3019300BF019B5A1E019258
:101C3C00002BF9D102B0704708000020D34D621080
:101C4C00002800F0F18170B582B00446036813F0EF
:101C5C00010F2CD0994B5B6803F00C03042B1DD0A7
:101C6C00964B5B6803F00C03082B12D06368B3F53A
:101C7C00803F41D0002B55D103F1804303F5043351
:101C8C001A6822F480321A601A6822F480221A60D0
:101C9C0037E08A4B5B6813F4803FE7D0874B1B68B7
:101CAC0013F4003F03D06368002B00F0BF8123685E
:101CBC0013F0020F75D0814B5B6813F00C0F5FD0E3
:101CCC007E4B5B6803F00C03082B54D02369002B6C
:101CDC0000F08A807A4B01221A60FFF781FF0546DB
:101CEC00764B1B6813F0020F75D1FFF779FF401B81
:101CFC000228F5D903209EE1704A136843F480331F
:101D0C001360636843B3FFF76BFF05466B4B1B68AF
:101D1C0013F4003FCBD1FFF763FF401B6428F5D9C8
:101D2C00032088E1B3F5A02F09D0644B1A6822F484
:101D3C0080321A601A6822F480221A60E1E703F1FB
:101D4C008043A3F53C331A6842F480221A601A6867
:101D5C0042F480321A60D4E7FFF742FF0546574B36
:101D6C001B6813F4003FA2D0FFF73AFF401B642816
:101D7C00F5D903205FE1514B5B6813F4803FA5D18B
:101D8C004E4B1B6813F0020F03D02369012B40F05C
:101D9C004F814A4A136823F0F803616943EAC1038F
:101DAC001360236813F0080F33D0A369002B5CD0A9
:101DBC00434B0122C3F88024FFF712FF05463F4B2B
:101DCC005B6A13F0020F21D1FFF70AFF401B0228B8
:101DDC00F5D903202FE1394A136823F0F803616920
:101DEC0043EAC1031360DCE7354B00221A60FFF7AE
:101DFC00F7FE0546314B1B6813F0020FD1D0FFF7ED
:101E0C00EFFE401B0228F5D9032014E10120FFF757
:101E1C0001FF236813F0040F00F09680274BDB6959
:101E2C0013F0805F34D1254BDA6942F08052DA61CD
:101E3C00DB6903F080530193019B0125214B1B6847
:101E4C0013F4807F26D0E368012B3DD0002B53D1B7
:101E5C0003F1804303F504331A6A22F001021A627B
:101E6C001A6A22F004021A6233E0154B0022C3F8FE
:101E7C008024FFF7B5FE0546104B5B6A13F0020F8A
:101E8C00C7D0FFF7ADFE401B0228F5D90320D2E0E6
:101E9C000025D3E70B4A136843F480731360FFF7F4
:101EAC009FFE0646074B1B6813F4807FCBD1FFF7D0
:101EBC0097FE801B6428F5D90320BCE0001002407B
:101ECC0000004242007000405F4A136A43F0010375
:101EDC001362E36833B3FFF783FE06465A4B1B6A63
:101EEC0013F0020F2FD1FFF77BFE801B41F28833DA
:101EFC009842F3D903209EE0052B09D0524B1A6A65
:101F0C0022F001021A621A6A22F004021A62E0E755
:101F1C004D4B1A6A42F004021A621A6A42F001022C
:101F2C001A62D6E7FFF75CFE0646474B1B6A13F0B6
:101F3C00020F08D0FFF754FE801B41F28833984201
:101F4C00F3D9032077E0E5B9E369002B72D03E4A60
:101F5C00526802F00C02082A56D0022B17D03B4BC9
:101F6C0000221A66FFF73CFE0446374B1B6813F041
:101F7C00007F47D0FFF734FE001B0228F5D9032061
:101F8C0059E0314AD36923F08053D361DCE72F4BFE
:101F9C0000221A66FFF724FE05462B4B1B6813F034
:101FAC00007F06D0FFF71CFE401B0228F5D903204A
:101FBC0041E0236AB3F5803F1AD023494B6823F4E0
:101FCC007413226A606A024313434B601F4B012255
:101FDC001A66FFF705FE04461B4B1B6813F0007FC7
:101FEC000ED1FFF7FDFD001B0228F5D9032022E0DE
:101FFC00154A536823F40033A1680B435360DCE7A4
:10200C00002018E0002016E0012B16D00E4B5B6868
:10201C0003F48031226A914211D103F47013626A85
:10202C0093420ED1002006E001207047012002E00F
:10203C00012000E0002002B070BD0120FBE7012070
:10204C00F9E70120F7E700BF001002400000424210
:10205C000F4B5B6803F00C02082A01D00D48704747
:10206C00C3F383420C49885C13F4803F0BD0084BBC
:10207C005B68C3F34043094AD35C064A02FB00F099
:10208C00B0FBF3F07047064B03FB00F0704700BF4A
:10209C000010024000127A008C2C0008882C0008DA
:1020AC0000093D00002800F0A08070B50D460446E4
:1020BC00524B1B6803F007038B420BD24F4A136839
:1020CC0023F007030B431360136803F007038B42E1
:1020DC0040F08D80236813F0020F17D013F0040F1B
:1020EC0004D0474A536843F4E0635360236813F009
:1020FC00080F04D0424A536843F460535360404A7B
:10210C00536823F0F003A1680B435360236813F06A
:10211C00010F31D06368012B20D0022B25D0384A17
:10212C00126812F0020F64D035494A6822F003029B
:10213C0013434B60FFF754FD0646314B5B6803F0CD
:10214C000C036268B3EB820F16D0FFF749FD801BBE
:10215C0041F288339842F0D9032045E0284A1268AE
:10216C0012F4003FE0D101203EE0254A126812F043
:10217C00007FD9D1012037E0204B1B6803F0070307
:10218C00AB420AD91D4A136823F007032B43136093
:10219C00136803F00703AB422DD1236813F0040F2F
:1021AC0006D0174A536823F4E063E1680B4353608D
:1021BC00236813F0080F07D0114A536823F46053B7
:1021CC00216943EAC1035360FFF742FF0C4B5B6884
:1021DC00C3F303130B4AD35CD8400B4B18600B4B67
:1021EC001868FFF7B9FC002070BD01207047012072
:1021FC00FAE70120F8E70120F6E700BF00200240D3
:10220C0000100240A42C000808000020040000204C
:10221C00014B1868704700BF0800002008B5FFF795
:10222C00F7FF044B5B68C3F30223034AD35CD8402B
:10223C0008BD00BF001002409C2C000808B5FFF739
:10224C00E7FF044B5B68C3F3C223034AD35CD8405B
:10225C0008BD00BF001002409C2C000870B582B075
:10226C000024A446A2E07E4DAB4210D007D97D4D90
:10227C00AB420CD005F58035AB4208D013E0A5F588
:10228C008015AB4203D005F57025AB4207D18B68A6
:10229C00002B55D0012B4ED04261082403E0A5F54C
:1022AC008015AB42F3D0BEF1FF0F4BD806464FEA78
:1022BC008C0233680F25954023EA050304FA02F2D9
:1022CC00134333604B6813F0805F6DD0664B9A6993
:1022DC0042F001029A619B6903F001030193019B97
:1022EC004FEA9C02951C614B53F825600CF00305DA
:1022FC00AD000F23AB4026EA03065D4B984228D075
:10230C0003F58063984200F08D8003F5806398425A
:10231C0000F08A8003F58063984218D0042319E0FA
:10232C00CC68C0E7CC680434BDE7CC680834BAE7A5
:10233C00CC680C34B7E702610824B4E70024B2E798
:10234C000424B0E7061DACF108029200B1E70323A8
:10235C0000E00023AB4033430232444D45F82230B9
:10236C004B6813F4801F61D0424A936843EA0E0312
:10237C0093604B6813F4001F5ED03E4AD36843EA67
:10238C000E03D3604B6813F4003F5BD0394A53689B
:10239C0043EA0E0353604B6813F4803F58D0354A20
:1023AC00136843EA0E0313600CF1010C0B6833FA4B
:1023BC000CF253D0012202FA0CF203EA020E32EABA
:1023CC000303F1D14B68122B3FF64DAF122B3FF6A6
:1023DC006AAF01A555F823F09B2200082D230008B5
:1023EC003723000849230008B3220008B322000851
:1023FC00B3220008B3220008B3220008B32200085D
:10240C00B3220008B3220008B3220008B32200084C
:10241C00B3220008B3220008B322000831230008BD
:10242C003D230008012395E7022393E7114A9368A3
:10243C0023EA0E0393609CE70E4AD36823EA0E034B
:10244C00D3609FE70B4A536823EA0E035360A2E75D
:10245C00084A136823EA0E031360A5E702B070BDA7
:10246C00000022100000311000100240000001405A
:10247C0000080140000401400AB1016170470904E1
:10248C0001617047C36801EA030221EA030141EAD2
:10249C00024101617047034690F82120D2B2022A12
:1024AC0006D004228263002280F82020012070478D
:1024BC0001680A6822F00E020A6001680A6822F0BC
:1024CC0001020A60026CC06B012101FA02F2426047
:1024DC0083F82110002083F82000704708B590F88D
:1024EC002130DBB2022B03D004238363012008BD0F
:1024FC000268136823F00E0313600268136823F05C
:10250C00010313600368194A934214D014329342A6
:10251C001FD0143293421ED0143293421ED0143268
:10252C0093421ED01432934202D04FF0807203E0DB
:10253C004FF4801200E001220D4B5A60012380F809
:10254C002130002380F82030436B6BB1984700207A
:10255C00CDE71022F0E74FF48072EDE74FF4805294
:10256C00EAE74FF48032E7E70020C0E708000240BA
:10257C000000024090F8210070470000002808DBA2
:10258C000901C9B200F1604000F5614080F8001308
:10259C00704700F00F000901C9B2014B1954704784
:1025AC0014ED00E000B500F00700C0F1070CBCF121
:1025BC00040F28BF4FF0040C031D062B0FD9C31EAC
:1025CC004FF0FF3E0EFA0CF021EA000199400EFA92
:1025DC0003FE22EA0E0241EA02005DF804FB00232E
:1025EC00EEE70000074AD36823F4E0631B041B0CDE
:1025FC00000200F4E060034343F0BF6343F4003394
:10260C00D360704700ED00E010B50446054BD86868
:10261C00C0F30220FFF7C6FF01462046FFF7AEFFCE
:10262C0010BD00BF00ED00E0002807DB00F01F022A
:10263C00400901239340024A42F82030704700BF02
:10264C0000E100E00138B0F1807F0BD24FF0E023C5
:10265C005861054AF02182F8231000209861072266
:10266C001A6170470120704700ED00E0026802F12A
:10267C000C0353E8003F23F490730C3242E8003112
:10268C000029F3D1026802F1140353E8003F23F050
:10269C000103143242E800310029F3D1036B012B02
:1026AC0005D0202380F84230002303637047026872
:1026BC0002F10C0353E8003F23F010030C3242E804
:1026CC0000310029F3D1ECE790F84130DBB2212B3B
:1026DC0001D0022070478368B3F5805F17D0036A7E
:1026EC005A1C02621A7803685A60C38C9BB2013B75
:1026FC009BB2C3844BB90268D36823F08003D360C8
:10270C000268D36843F04003D3600020704703692C
:10271C00002BE4D1036A1B880268C3F308035360DF
:10272C00036A02330362E0E710B5044602681369DA
:10273C0023F44053C1680B4313618368026913434C
:10274C0042691A430168CB6823F4B05323F00C039D
:10275C001343CB600268536923F4407381690B43C4
:10276C0053610268134B9A4220D0FFF757FD024683
:10277C0002EB820202EB820263689B00B2FBF3F273
:10278C000D48A0FB02314909642303FB11231B01F3
:10279C003233A0FB03035B0903F0F00202EB0112DE
:1027AC0003F00F03216813448B6010BDFFF746FD47
:1027BC000246DDE7003801401F85EB5160B310B5D0
:1027CC00044690F8413013B3242384F84130226836
:1027DC00D36823F40053D3602046FFF7A5FF22688B
:1027EC00136923F4904313612268536923F02A037D
:1027FC0053612268D36843F40053D36000206064B3
:10280C00202384F8413084F84230606310BD80F896
:10281C004030FDF7C9FDD7E701207047704708B578
:10282C000168CA6822F04002CA60202280F8412068
:10283C00FFF7F4FF002008BD7047704708B5406AE9
:10284C000023C385C384FFF7F8FF08BD704790F8D9
:10285C004230DBB2222B69D18368B3F5805F4FD055
:10286C00826AB3F5805F04D0002B56D10369002B2C
:10287C0053D103685B681370836A01338362C38D21
:10288C009BB2013B9BB2C385002B51D100B583B0E9
:10289C000268D36823F02003D3600268D36823F462
:1028AC008073D3600268536923F0010353612023C2
:1028BC0080F8423000234363036B012B33D1002398
:1028CC000363026802F10C0353E8003F23F010038A
:1028DC000C3242E800310029F3D103681A6812F077
:1028EC00100F06D0002201921A6801925B680193C6
:1028FC00019B818DFFF7AAFF002003B05DF804FB5C
:10290C000269002AACD1826A03685B68C3F30803CE
:10291C001380836A02338362B1E703685B6803F058
:10292C007F031370A8E7FFF787FFE5E702207047E6
:10293C000020704710B582B0044602681368D06856
:10294C00516913F00F0F09D113F0200F0CD010F0B8
:10295C00200F09D02046FFF77AFF16E011F0010195
:10296C0015D110F4907F12D1216B012979D013F07D
:10297C00800F03D010F0800F40F0138113F0400F44
:10298C0003D010F0400F40F0108102B010BD13F0D6
:10299C00010F06D010F4807F03D0626C42F001026C
:1029AC00626413F0040F04D019B1626C42F002029D
:1029BC00626413F0020F04D019B1626C42F004028D
:1029CC00626413F0080F07D010F0200F00D119B17A
:1029DC00626C42F008026264626C002AD5D013F07B
:1029EC00200F02D010F0200F29D123685B6903F06F
:1029FC004003626C12F0080F00D163B32046FFF75E
:102A0C0035FE23685B6913F0400F20D0226802F179
:102A1C00140353E8003F23F04003143242E8003122
:102A2C000029F3D1E36B73B1624A5A63E06BFFF791
:102A3C0055FD0028A9D0E06B436B9847A5E72046CD
:102A4C00FFF705FFD1E72046FFF7F7FE9DE720468D
:102A5C00FFF7F3FE99E72046FFF7EFFE00236364D0
:102A6C0093E713F0100F82D010F0100F3FF47FAFEC
:102A7C00002301931368019353680193019B5369DD
:102A8C0013F0400F51D0E26B13685B689BB2002BC4
:102A9C003FF47BAFA18D99427FF677AFE3859369C5
:102AAC00202B37D0226802F10C0353E8003F23F4AB
:102ABC0080730C3242E800310029F3D1226802F114
:102ACC00140353E8003F23F00103143242E80031B1
:102ADC000029F3D1226802F1140353E8003F23F0DC
:102AEC004003143242E800310029F3D1202384F84A
:102AFC00423000232363226802F10C0353E8003FA9
:102B0C0023F010030C3242E800310029F3D1E06BC2
:102B1C00FFF7C1FC02236363A18DE38D9BB2C91A3D
:102B2C0089B22046FFF792FE2FE7A18DE38D9BB271
:102B3C00C91A89B2E38D9BB2002B3FF426AF002952
:102B4C003FF423AF226802F10C0353E8003F23F457
:102B5C0090730C3242E800300028F3D1226802F165
:102B6C00140353E8003F23F00103143242E8003011
:102B7C000028F3D1202384F84230002323632268F9
:102B8C0002F10C0353E8003F23F010030C3242E82F
:102B9C0000300028F3D1022363632046FFF756FE72
:102BAC00F3E62046FFF790FDEFE62046FFF737FEF1
:102BBC00EBE600BF4928000870470000FFF7FCFF58
:102BCC000B480C490C4A002302E0D458C45004337F
:102BDC00C4188C42F9D3094A094C002301E0136054
:102BEC000432A242FBD300F017F8FDF7DDFA704770
:102BFC00000000200C000020BC2C00080C00002061
:102C0C00C8000020FEE703460244934200D17047FF
:102C1C0003F8011BF9E7000070B500260C4D0D4CB4
:102C2C00641BA410A64209D100F01AF800260A4D24
:102C3C000A4C641BA410A64205D170BD55F8043B88
:102C4C0098470136EEE755F8043B98470136F2E712
:102C5C00B42C0008B42C0008B42C0008B82C0008C4
:102C6C00F8B500BFF8BC08BC9E467047F8B500BF6D
:082C7C00F8BC08BC9E4670473D
:102C8400A0B1C200010200000203040506070809FE
:102C94000A0B0C0D0E0F10100000000001020304BB
:102CA40000000000000000000102030406070809F8
:042CB40031010008E2
:042CB8000D01000802
:0C2CBC00010000001000000000127A006F
:0400000508002BC9FB
:00000001FF
